:020000040000FA
:060000000A128A110C280F
:10000800FE00030EF2000A08F3000A128A1167289C
:100018000A128A110F28F601F701F801F901830184
:100028000A128A11D528831603130F178F160F1675
:100038000F148316031789010330880023308316B1
:100048000313850018308700880189018312031380
:100058008501870188018901831603139F131F12E5
:100068009F12831203131F083F3980389F00C33043
:100078009F051F142130F500F50B40288312031348
:100088009F148B178B160B110B178C1183160313E8
:100098008C1585160C17831203130C138316031380
:1000A800811281110115811401140A30831203137E
:1000B8008100A001A101A20124300A128A11B720EF
:1000C8000A128A110800831203130C1F6C286D286A
:1000D80089287603031D7128722879281E08F100E3
:1000E8007108F8001F15F60180281E08F100710834
:1000F800F7001F11F601F60A0C132730F100F10B77
:1001080083288628831203139F148C1D8C288D281E
:10011800B0280A128A11DE200A128A11F100710829
:10012800F9007903031D99289A28A12878080A124A
:100138008A11EE200A128A11AD2802307906031DB1
:10014800A628A728AD2877080A128A11EE200A12D5
:100158008A11831203138C1173088A00720E8300AC
:10016800FE0E7E0E0900F400831603138712741D19
:10017800BE28BF28C7288312031322088316031337
:1001880094008715CF2883120313200822048316AE
:100198000313940087117408831203132104940035
:1001A80008000A128A1117200A128A11DA280A127C
:1001B8008A110C280A128A11E7200A128A1183125E
:1001C80003131308080083160313141CEC28ED28E6
:1001D800E7280800F0007008831203139300080052
:04400E00C420FF3F8C
:00000001FF
