:020000040000FA
:060000000A128A110C280F
:10000800FE00030EF1000A08F2000A128A11F12913
:100018000A128A110F280A128A1129240A128A112F
:10002800BE00B301B401B501B601B701B801B90109
:10003800BA01BB01BC01BD01F901FA0183010A1231
:100048008A1126280A128A117A230A128A1183121F
:1000580003130711033083120313AA009730A90072
:10006800A90B3428AA0B3428831203133E080A125A
:100078008A1123240A128A11831203133E03031DD3
:100088004628472856280A128A1113240A128A1168
:1000980083120313A9002908BC000230A90029080B
:1000A800BE00682802303E06031D5B285C286828CD
:1000B8000A128A1113240A128A1183120313A9003F
:1000C8002908BD00BE01BE0A033083120313AA002B
:1000D8009730A900A90B6E28AA0B6E288312031368
:1000E8000715033083120313AB008A30AA0055307A
:1000F800A900A90B7D28AA0B7D28AB0B7D28103001
:10010800831203133902031C8A288B288F28B9010C
:10011800831603130C1633308312A0000030A1009D
:100128003D08A900AA012908A2002A08A3000A126A
:100138008A1111230A128A11831203132008AB00B3
:100148002B08B8003330A0000030A1003D08A900FA
:10015800AA012908F3002A08F4006430F5000030E9
:10016800F6000A128A11C3230A128A11740883122C
:100178000313A3007308A2000A128A1111230A129A
:100188008A11831203132008AB002108AC00380839
:10019800AD00AE012D08F3002E08F4009C30F500E8
:1001A800FF30F6000A128A11C3230A128A11730853
:1001B800831203132B07B10074080318740A2C0761
:1001C800B2000A30A0000030A1003208A3003108B4
:1001D800A2000A128A1111230A128A118312031328
:1001E8002008A9002908B7003330A0000030A1007A
:1001F8003D08A900AA012908F3002A08F400643080
:10020800F5000030F6000A128A11C3230A128A1177
:10021800740883120313A3007308A2000A128A1138
:1002280011230A128A11831203132008AB00210834
:10023800AC009C30AD002D08F30038080A128A1172
:10024800FE230A128A1183120313AE00F630AF00A0
:100258002F08F30037080A128A11FE230A128A119E
:10026800831203132E072B07B0003008B600333073
:10027800A0000030A1003C08A900AA012908A2009A
:100288002A08A3000A128A1111230A128A1183125A
:1002980003132008AB002B08B5003330A000003052
:1002A800A1003C08A900AA012908F3002A08F400C3
:1002B8006430F5000030F6000A128A11C3230A12CE
:1002C8008A11740883120313A3007308A2000A1288
:1002D8008A1111230A128A11831203132008AB0012
:1002E8002108AC003508AD00AE012D08F3002E083A
:1002F800F4009C30F500FF30F6000A128A11C3237F
:100308000A128A117308831203132B07B1007408A9
:100318000318740A2C07B2000A30A0000030A100AC
:100328003208A3003108A2000A128A1111230A1206
:100338008A11831203132008A9002908B400333056
:10034800A0000030A1003C08A900AA012908F30078
:100358002A08F4006430F5000030F6000A128A1109
:10036800C3230A128A11740883120313A3007308A3
:10037800A2000A128A1111230A128A118312031386
:100388002008AB002108AC009C30AD002D08F3001C
:1003980035080A128A11FE230A128A1183120313DE
:1003A800AE00F630AF002F08F30034080A128A11A5
:1003B800FE230A128A11831203132E072B07B0009B
:1003C8003008B300881CE929EA292B28BA01BB01A7
:1003D80088012B280A128A110C280B1DF429F529EB
:1003E800FC290130F000700883120313B9070B11C0
:1003F800831203138C1E012A022A842A0D301A063E
:10040800031D072A082A0C2A3B08860002308800A8
:100418000D301A060319112A122A842A1A08F00024
:100428007008FA0030307A06031D1B2A1C2A1E2A7F
:10043800BA017F2A31307A06031D232A242A272A63
:10044800BA01BA0A7F2A32307A06031D2C2A2D2ACD
:10045800322A0230F0007008BA007F2A33307A0658
:10046800031D372A382A3D2A0330F0007008BA00E5
:100478007F2A34307A06031D422A432A482A043048
:10048800F0007008BA007F2A35307A06031D4D2A1D
:100498004E2A532A0530F0007008BA007F2A3630F9
:1004A8007A06031D582A592A5E2A0630F000700879
:1004B800BA007F2A37307A06031D632A642A692A1C
:1004C8000730F0007008BA007F2A38307A06031D1A
:1004D8006E2A6F2A742A0830F0007008BA007F2A42
:1004E80039307A06031D792A7A2A7F2A0930F000E2
:1004F8007008BA007F2A3A083B07F0007008BB0072
:100508000C1E872A882A0A2B7908031D8C2A8D2A13
:10051800932A3808303E9900F901F90A092B790322
:10052800031D972A982A9F2A2E3099000230F0003E
:100538007008F900092B02307906031DA42AA52AA0
:10054800AD2A3708303E99000330F0007008F900F2
:10055800092B03307906031DB22AB32ABB2A3608B1
:10056800303E99000430F0007008F900092B04307F
:100578007906031DC02AC12AC82A2D3099000530E2
:10058800F0007008F900092B05307906031DCD2A03
:10059800CE2AD62A3508303E99000630F000700879
:1005A800F900092B06307906031DDB2ADC2AE32A29
:1005B8002E3099000730F0007008F900092B073039
:1005C8007906031DE82AE92AF12A3408303E990001
:1005D8000830F0007008F900092B08307906031D6F
:1005E800F62AF72AFF2A3308303E99000930F0002E
:1005F8007008F900092B09307906031D042B052B17
:10060800092B0D309900F901092B0C1272088A0088
:10061800710E8300FE0E7E0E090083120313A601DD
:10062800A11F172B182B1F2BA009A109A00A03191A
:10063800A10AA601A60AA31F222B232B2C2BA20951
:10064800A309A20A0319A30A0130A4002408A606D4
:10065800A701A801200821040319332B342B6B2B85
:10066800A501A50A422B01300310A00DA10DFF3EE4
:10067800031D382B0130A4002408A507A11F452B12
:10068800462B372B01300310A70DA80DFF3E031D85
:10069800472B21082302031D532B20082202031C89
:1006A800562B572B5E2B2008A2022108031CA303FC
:1006B800A302271401300310A10CA00CFF3E031D58
:1006C8005F2B0130A502031D6A2B6B2B462B2608D6
:1006D80003196F2B702B752BA709A809A70A0319F3
:1006E800A80A2808A1002708A000080083160313F9
:1006F8000F178F160F160F14831603178901880119
:1007080083160313850186019030870088018901CB
:1007180083120313850186018701880189018B17DC
:100728008B160B118316031318121815831603174B
:100738008715CF308316031399009A018312031388
:100748009817181318168316031398168112811117
:100758000115811401140A308312031381008316D2
:1007680003130711831203130715F301F401F501AD
:1007780020300A128A11E8230A128A110800F701A8
:10078800F801731CC82BC92BCF2B7508F707031862
:10079800F80A7608F80701300310F50DF60DFF3E4C
:1007A800031DD02B01300310F40CF30CFF3E031D86
:1007B800D72B73087404031DE22BE32BC52B780891
:1007C800F4007708F3000800F60083160313871275
:1007D800761DEF2BF02BF42B750894008715F82B5A
:1007E8007308750494008711760874048312031340
:1007F80094000800F600F501761C032C042C082C44
:100808007308F4007408F5070310F30D0310F60CD1
:100818007608031D102C112C002C750808000A12EC
:100828008A111C240A128A11831203131308080060
:1008380083160313141C212C222C1C2C0800F300F3
:0C084800730883120313930008000134AE
:04400E00C420FF3F8C
:00000001FF
