:020000040000FA
:060000000A128A110C280F
:10000800FE00030EF1000A08F2000A128A11E9291B
:100018000A128A110F280A128A11C4230A128A1195
:10002800BD00B401B501B601B701B801B901BA0103
:10003800BB01BC01F801F901FA0183010A128A1116
:1000480025280A128A1111230A128A11831203130E
:100058000711033083120313AB009730AA00AA0BD1
:100068003328AB0B3328831203133D080A128A1175
:10007800BE230A128A11831203133D03031D452868
:10008800462855280A128A11AE230A128A118312A9
:100098000313AA002A08BB000230AA002A08BD00E0
:1000A800672802303D06031D5A285B2867280A1274
:1000B8008A11AE230A128A1183120313AA002A088E
:1000C800BC00BD01BD0A033083120313AB00973097
:1000D800AA00AA0B6D28AB0B6D2883120313071512
:1000E800033083120313AC008A30AB005530AA00EA
:1000F800AA0B7C28AB0B7C28AC0B7C281030831215
:1001080003133A02031C89288A288E28BA01831609
:1001180003130C1633308312A2000030A3003C08EE
:10012800AA00AB012A08A4002B08A5000A128A110C
:10013800A8220A128A11831203132208AC002C0881
:10014800B9003330A2000030A3003C08AA00AB017C
:100158002A08F3002B08F4006430F5000030F6009C
:100168000A128A1158230A128A1174088312031377
:10017800A5007308A4000A128A11A8220A128A117B
:10018800831203132208AC002308AD003908AE001F
:10019800AF012E08F3002F08F4009C30F500FF3063
:1001A800F6000A128A1158230A128A117308831258
:1001B80003132C07B20074080318740A2D07B30040
:1001C8000A30A2000030A3003308A5003208A400BA
:1001D8000A128A11A8220A128A118312031322080A
:1001E800AA002A08B8003330A2000030A3003C0857
:1001F800AA00AB012A08F3002B08F4006430F500CC
:100208000030F6000A128A1158230A128A1174085B
:1002180083120313A5007308A4000A128A11A822E6
:100228000A128A11831203132208AC002308AD00B6
:100238009C30AE002E08F30039080A128A1199235F
:100248000A128A1183120313AF00F630B000300887
:10025800F30038080A128A1199230A128A118312A4
:1002680003132F072C07B1003108B7003330A20061
:100278000030A3003B08AA00AB012A08A4002B0801
:10028800A5000A128A11A8220A128A1183120313DE
:100298002208AC002C08B6003330A2000030A300BE
:1002A8003B08AA00AB012A08F3002B08F4006430CD
:1002B800F5000030F6000A128A1158230A128A1132
:1002C800740883120313A5007308A4000A128A1184
:1002D800A8220A128A11831203132208AC002308E9
:1002E800AD003608AE00AF012E08F3002F08F40069
:1002F8009C30F500FF30F6000A128A1158230A12C2
:100308008A117308831203132C07B20074080318A8
:10031800740A2D07B3000A30A2000030A300330886
:10032800A5003208A4000A128A11A8220A128A110A
:10033800831203132208AA002A08B5003330A2004A
:100348000030A3003B08AA00AB012A08F3002B08E1
:10035800F4006430F5000030F6000A128A115823C0
:100368000A128A11740883120313A5007308A400E3
:100378000A128A11A8220A128A1183120313220868
:10038800AC002308AD009C30AE002E08F300360800
:100398000A128A1199230A128A1183120313AF00D1
:1003A800F630B0003008F30035080A128A11992394
:1003B8000A128A11831203132F072C07B100310880
:1003C800B4002A280A128A110C280B1DEC29ED29E1
:1003D800F4290130F000700883120313BA070B11D7
:1003E800831203138C1EF929FA291B2A85170D304D
:1003F8001A06031D002A012A162A85132B307A06AD
:10040800031D072A082A0D2A0130F0007008F90791
:100418001B2A2D307A06031D122A132A1B2A0130A3
:10042800F9021B2A1A08F0007008FA001B2A0C1E91
:100438001E2A1F2AA12A7808031D232A242A2A2AC9
:100448003908303E9900F801F80AA02A7803031DFC
:100458002E2A2F2A362A2E3099000230F0007008F2
:10046800F800A02A02307806031D3B2A3C2A442AB9
:100478003808303E99000330F0007008F800A02AD0
:1004880003307806031D492A4A2A522A3708303E83
:1004980099000430F0007008F800A02A04307806AB
:1004A800031D572A582A5F2A2D3099000530F0007D
:1004B8007008F800A02A05307806031D642A652A0A
:1004C8006D2A3608303E99000630F0007008F800B2
:1004D800A02A06307806031D722A732A7A2A2E303B
:1004E80099000730F0007008F800A02A0730780655
:1004F800031D7F2A802A882A3508303E9900083053
:10050800F0007008F800A02A08307806031D8D2A2C
:100518008E2A962A3408303E99000930F000700877
:10052800F800A02A09307806031D9B2A9C2AA02AD5
:100538000D309900F801A02A0C1272088A00710E79
:100548008300FE0E7E0E090083120313A701A31F6A
:10055800AE2AAF2AB62AA209A309A20A0319A30A36
:10056800A701A70AA51FB92ABA2AC32AA409A50957
:10057800A40A0319A50A0130F7007708A706A801FD
:10058800A901220823040319CA2ACB2A022BA6018F
:10059800A60AD92A01300310A20DA30DFF3E031DA0
:1005A800CF2A0130F7007708A607A31FDC2ADD2A27
:1005B800CE2A01300310A80DA90DFF3E031DDE2A27
:1005C80023082502031DEA2A22082402031CED2A17
:1005D800EE2AF52A2208A4022308031CA503A50273
:1005E800281401300310A30CA20CFF3E031DF62AA9
:1005F8000130A602031D012B022BDD2A270803194F
:10060800062B072B0C2BA809A909A80A0319A90A64
:100618002908A3002808A2000800831603130F174F
:100628008F160F160F148316031789018801831676
:100638000313850190308700880189018312031311
:1006480085018701880189018B178B160B11831689
:10065800031318121815831603178715CF3083163E
:10066800031399009A018312031398171813181685
:100678008316031398168112811101158114011430
:100688000A308312031381008316031307118312A0
:1006980003130715F301F401F50120300A128A113A
:1006A80083230A128A11080083120313A001A101EF
:1006B800731C5F2B602B682B750883120313A0072C
:1006C8000318A10A7608A10701300310F50DF60DED
:1006D800FF3E031D692B01300310F40CF30CFF3EA1
:1006E800031D702B73087404031D7B2B7C2B5C2B60
:1006F800831203132108F4002008F3000800F60011
:10070800831603138712761D8A2B8B2B8F2B750864
:1007180094008715932B7308750494008711760845
:1007280074048312031394000800F600F501761C84
:100738009E2B9F2BA32B7308F4007408F507031056
:10074800F30D0310F60C7608031DAB2BAC2B9B2B7B
:10075800750808000A128A11B7230A128A1183122F
:1007680003131308080083160313141CBC2BBD2B9A
:10077800B72B0800F30073088312031393000800D3
:0207880001343A
:04400E00C420FF3F8C
:00000001FF
